:020000040001F9
:1000000000C00100C1000100ED120000F11200006B
:10001000F5120000F9120000FD12000001130000AB
:10002000051300000000000000000000091300009C
:100030000D13000000000000111300001513000054
:10004000EB120000EB12000085020100210201000A
:100050007501010069140000EB120000AD140000EE
:1000600055010100EB1200000D1500003F020100D8
:1000700049020100530201005D0201006702010014
:10008000710201007B020100910101002D140000AA
:100090002D1400002D140000CD1300000D140000DD
:1000A000CC3301000348854600F03CF80048004787
:1000B0002D09010000C00100000000000000000048
:1000C00072B615481549016000F004F8FFF7EAFF21
:1000D00000F02CFC02461160121D9545FBD17047C3
:1000E0006B46F0B469460E4A1047FEE7F220F7E788
:1000F000F320F5E7F420F3E7F520F1E7F620EFE74A
:10010000F720EDE7F820EBE7FB20E9E7FC20E7E745
:10011000FE20E5E7FF20E3E700BC0100EDA5CEDE11
:10012000E50D00001CB509480090094801900546FE
:100130000126009C05E0E36807CC33430C3C98475C
:100140001034AC42F7D3FFF7B1FF000018340100C0
:100150001834010010B5F3F715FF0446F1F7B7F9AD
:10016000A00106D501204006F3F7EAFE40BF20BFFC
:1001700020BF10BD80B5012080070068002801D095
:1001800030BFFDE700F03EFBF0F7F4F880BD000063
:1001900070B51D48B44D28181C490E68F4F784FA50
:1001A000F4F7EAF9002E2CD104461948295C0429F9
:1001B00001D8082000E00C20022900D802201549AF
:1001C0006956491C814201DB02F042FC12482C5462
:1001D000E00703D001200005F3F7E4FEA00703D5F4
:1001E00001204005F3F7DEFE0C480168890605D5BD
:1001F0002021016001208005F3F7D4FE2020F3F7D1
:10020000D9FE40BF70BDC046AE630000140002407E
:100210002B62000029620000AA630000A8030140CD
:1002200080B50320F4F7E0F903F086F8F3F77AFDE0
:1002300002F00EFCF3F79EFDF1F7C2FF80BD80B522
:10024000002002F0D7F880BD80B5012002F0D2F87E
:1002500080BD80B5022002F0CDF880BD80B50320BE
:1002600002F0C8F880BD80B5042002F0C3F880BD5C
:1002700080B5052002F0BEF880BD80B5062002F0F2
:10028000B9F880BD034801680622914308224A401C
:10029000026070479C030140F0B58BB00393059159
:1002A000E52A019001D9082002E0812A02D9042020
:1002B000049005E04F2A01D8012100E002210491B9
:1002C000684B694CE65C00250695079509952F4615
:1002D00008952C460296B6B296421CD20598835DCC
:1002E000002B15D0B3000398C35800200999C918F2
:1002F0000991474173430899C918089144417519F8
:10030000304670430699411806910798401C0790A3
:1003100004983618DFE7049705950298801E02902E
:1003200000218BB2029898421DDD9B000398C358B0
:100330008E18B6B2304658430027089D2D180895F0
:100340007C410998C0180990049878410490059858
:10035000801905907643069830180690491C079836
:10036000401C0790DDE7069EF3170998049F394665
:100370003246F0F7D7FF02900D460598C3170246A4
:100380000590089821460093F0F7CCFF029A101AC6
:100390008D41EA170295294651405040801A9141FB
:1003A000079A5643059A5243B61AC20F0A431AD007
:1003B000E20F0023089DAA185C415208E507521974
:1003C0000892FA0F099DAA185F415208FB07D2183C
:1003D00009924008CA078018F20FB218561064102C
:1003E0007F104908E1E70299002900D540420799AA
:1003F000002929D0002E27D00AAA3146F3F77EFD26
:1004000001990860079AD31708982146F0F78AFFE8
:1004100004460D4609983946059A009BF0F782FF7D
:10042000201A8D41010E2A025118000201225203A6
:1004300096420FDBCA0F002380184B414008D907B2
:10044000401859107608F1E7039800680199086090
:10045000002004E00AAA3146F3F750FD01994860F4
:100460000BB0F0BD4962000044400100F0B59BB004
:1004700007930D92039106900EA8411C0991014625
:1004800009310B9101462231089112300C907D20E8
:1004900000010A9000202199209A00920546142814
:1004A0001FD0069A12189379002B18D01479567918
:1004B000360237190A9CA74211D2ECB22E460B9D88
:1004C0002B550123099D2B55354663000C9CE752A3
:1004D000D479127A12021219089CE252751C401D3E
:1004E000DDE7C802854E30D40798027803990846A4
:1004F0000B3002900846603001904A310D9B039109
:10050000002A22D01F787800085AB0421AD9ECB2DB
:10051000059566000C998853B80001990858049213
:100520001D4600F033F92B46049A08998853734E00
:10053000059D0120099908550298C05D0B99085541
:1005400003996D1C5B1C521EDAE7EFB200201221EA
:100550000490039002460590874220D00EAB5B5A70
:10056000674C1C19A4B2674DAC4215D8521CD4B2CA
:10057000022C02D0C3B205930EE0059A52000C9CE7
:10058000A55A0222AB42049505D9741CA54231D369
:100590000A9CA34233D80393891C401CDCE7D0B2E9
:1005A0000228039C049D2ED119200001AC420ADDD3
:1005B000291B091827D0E803534A80180022F3F7B3
:1005C0009DFC661B08E0661B31181CD0E0034E4AF8
:1005D00080180022F3F792FC0021099A059BD15460
:1005E0004643F017400C3018C00B401979000C9AA4
:1005F000505208E00EA908180021417003E00020C5
:100600000999059A885400210B460D9A8F4209D00A
:100610000EA840184078002802D0D8B211545B1CB4
:10062000491CF3E701211846059300291BD00990C6
:10063000C3B200200A9001279F420FD20D99C85DD6
:100640000B9A155CC9194C1E2678925D954203D908
:1006500020700E7001200A907F1CEDE70998401E63
:10066000059B0A99E1E7D9B20098814200D301467F
:100670000798017001200C9A00281DD00591C8B27E
:100680000A900020099001230A98834210D20D9904
:10069000CF5C7800155AC818461E34786100515A4C
:1006A0008D4203D237700470012009905B1CEBE788
:1006B0000599491E0998DFE70698C01D00210D9C89
:1006C000079A1278914216D2625C52000C9B9A5A99
:1006D000C31E1A70120A5A70625C5200089B9A5A22
:1006E0000270120A4270625C0B9B9A5C431E1A7085
:1006F000401D491CE4E71BB0F0BDC0463F060000AA
:100700000FFAFFFF2E0200000000E0FC0122002192
:10071000930605D0024200D0491C1206D20DF7E71D
:10072000C8B27047F8B50C460546164841780278BD
:1007300091420ED2002D0CD4072D0AD8002C08D4DB
:10074000072C06D8EBB201229A4083681E5D324224
:1007500000D0F8BD47683F5D3A42FAD016431E55B7
:10076000491C41700026084F082EF2D0B85D401990
:1007700040B2B9194978091949B2FFF7D3FFB61C3D
:10078000F2E7C0468039010060330100002807D439
:10079000C10B08D0C10D05D1010A4B48084302E046
:1007A000002000E0014880B27047C046FFFF000013
:1007B00010B549000AA28918098A0022104B082A9C
:1007C00003D09C5A8452921CF9E700222A2A06D0B0
:1007D0008318DC884C43E40B1C81921CF6E710BDA7
:1007E000931B002E693B4545BB4C8D523457015B32
:1007F000295ED3601B631365CB664F68A669D96A0F
:100800006833010010B586B027480068274A284998
:1008100088540020182804D06A4600231350001D75
:10082000F8E76846A9228280224A02815922828101
:10083000214A9208214B1A434280214A8A18920881
:100840001A43C280012293031EA212889408E21860
:1008500042821D4AA418C4821C4C0C19A4B2A408DC
:10086000E31843811A4B1B4CE3189B000C330924FB
:100870001C4304239C4304800988174BC91889B280
:1008800089088918C1811549154A511889000C3108
:100890000C2291430A46093202820A3181820621E2
:1008A000EFF7AAFC06B010BD88030140CA63000040
:1008B00044400100C90500000000010000C0FFFF26
:1008C00024620000003801000080FFFF5C6200002D
:1008D00000000000183400009C6600008001000049
:1008E0000000000005281BD87844007940008744A8
:1008F000041714020207C80610E0480710D111E0DF
:10090000094A4A4301208303D218D20B2F23DB4329
:1009100053435918052903D270470807400F01D0E7
:100920000020704701207047AB02000082B0012711
:1009300038065B490A1872B60A605A4E30183060A1
:10094000F0F728FE58485949315059485949315013
:1009500059485A4931505A4D5A4870515A48446D75
:10096000B807006800281CD0F3F70CFB0028FBD563
:10097000A006800F0BD0F1F703FF544800218173CC
:1009800053497018326851181C22F0F7E3FCF1F754
:100990008FFC50481021016041204006F3F7D0FA47
:1009A00076E00025EE433046F3F7CAFA019630466A
:1009B0003C4EF3F7D1FA282004422BD0009444484F
:1009C0003418F1F7D7FDE5816583BB2060801020E6
:1009D0003E4C172803D02554E575401CF9E72577D0
:1009E0003D48A06164203D492A4602F009F82846A6
:1009F00002F098FB284602F021FC1D205F2802D05F
:100A00002554401CFAE701F021FF35480F213154ED
:100A1000A573009C3348305C01F062FF01F0D4FF05
:100A200031480199016041603048305C264D2860B2
:100A3000F807F3F7B7FAF3F7ADFA0028FBD46F65C0
:100A4000E0071F4D02D1F3F7F5FA10E02848315ABC
:100A50007D20C00048432749F3F7D2FAF3F73CFD65
:100A60002548F3F7A7FA05200003F3F79BFAF1F7FF
:100A70000BFC01200221AB2200242346EFF708FFE4
:100A8000E12040022146F0F753FA1CA0F0F7BBFA30
:100A90007059804740BF62B601F0F0FBFCE7C046EA
:100AA000004001004440010058620000E9180100C4
:100AB00054620000110F0100506200008D1A000006
:100AC0004C620000451B00008803014020390100F2
:100AD0003062000000E100E000000F0F4A02000059
:100AE000486200002B62000010000440CA6300004E
:100AF00024630000B80B000010510000416C6976BF
:100B0000650A0000FEB50C46204988423CD8089F83
:100B1000032F029001920DD0022F06D0002F0BD18F
:100B20001846FFF7F3FD830007E01846FFF7EEFDD8
:100B3000034602E0022300E001231548EE490D5A66
:100B4000E120C600002D0AD0099938461F46FFF75C
:100B5000C9FEE9493B46002801D0280107E00D48BD
:100B6000085A002801D0000101E03046C830019A3F
:100B70000A21891ADAB25443CC40444302984643CE
:100B8000A64201D80020FEBD0120FEBD40420F005C
:100B9000326200003E62000010B50024E0B2072877
:100BA00003D201F027FC641CF8E710BDF0B5540037
:100BB0008E4B1C190025E580684DCF4E755D022DCA
:100BC00005D1950818262E401207520FB218644D11
:100BD0002E68D640F20716D0A21D891DEC88AD887C
:100BE0009B7800280FD00E789E4208D38E1E37784F
:100BF00076783602F619AE4201D3A64202D9491DD3
:100C0000401EEEE716800120F0BDC046C8400AD065
:100C10000649B94A515C090601D4401E04E0012886
:100C200001D0801E00E00020C0B270475663000073
:100C300010B583235B006D4CE35C002B03D0FFF702
:100C4000B5FF012010BD00F035F810BD80B500F0F3
:100C500013F8002804D0424800210173022100E06B
:100C600000210448614A115483204000115401209E
:100C7000084380BD0601000110B5394C217A0120DE
:100C8000002915D035499C4A515C022910D800F042
:100C900069F8002806D0217A207B884205D2401CC2
:100CA000207302E000202073217A411A4842484113
:100CB00010BDC046FEB5294B8F4CE35C022B154698
:100CC00005D1930818241C4013075B0FE518244B2B
:100CD0001B68EB400024DB072CD05200434B9A18D2
:100CE000D688002E0194009501D0DA1C00E09A1CF1
:100CF0001C461378891D22880292194CE288A48828
:100D0000DBB2002815D00D789D420FD38D1E2F78B1
:100D10006D782D02ED19A54208D3954206D8AF1B78
:100D200000D2771BBDB2029FBD4205D8491D401EAF
:100D3000E7E7019C2046FEBD0720009A10400124F1
:100D400021468140D008294A10182122D200835C14
:100D50000B43835402484473ECE7C0462B62000007
:100D600020390100F0B585B00024019400940320DF
:100D7000C0431E4D1E4900280CD02A18535C545401
:100D80004326B600975D945503AA12181371177283
:100D9000401CF0E7174E6846B06003A8706074709E
:100DA00068790F2800D30F203070082C14D000274A
:100DB000082F0FD00120B8407168095D084207D0A4
:100DC000B168095D084203D178B261B2FFF7AAFCAD
:100DD0007F1CEDE7641CE8E770786979814201D9EE
:100DE000002000E0012005B0F0BDC0460C38010035
:100DF0000C01000180390100F0B585B002933D4C33
:100E00003D4B1B5D5B1E3D4C032B01D29B00E41848
:100E10008D008A18521CD3B20A9A934200D313460B
:100E20000392226800924619049042590C9801904E
:100E30000B9D084699420BD280CE97420C4600D8B3
:100E40000446974200D81746491C3A462046F1E727
:100E5000002D00D02870C7B20021002F039846D083
:100E6000874244D2B900049840184568001F0668BC
:100E7000701BC2175040AE42334600DB2B46821A2D
:100E800004984058C11A100C02D049105208FAE7D1
:100E9000002905D0D0030022F3F730F8401000E01D
:100EA0001748AE4200DB4042010A7E220A40009D04
:100EB000A95A144B04461C401B1B5B1C4B43A9182E
:100EC00049886143C918490AFA0382180E4810403C
:100ED00008430199002900D008600012029941439B
:100EE000C817091381430948814200D3014688B2DB
:100EF00005B0F0BD4562000044400100F4A60100C9
:100F0000FF3F0000FF0100000080FFFFFFFF000027
:100F1000F0B5FFB08CB00E921F9107468000FD4DDA
:100F20002818FD4940580890FC4828181E90007D5C
:100F30001390FB48285C0B9025A800240470F94806
:100F4000285C0790F848295C07267B00F7481D902D
:100F5000027A06920129239609D8BA02AA18101D0E
:100F600021900325182004222092022208E03A0250
:100F7000AA18101D219070200822209203223546C5
:100F80001E9EB67D2496E94EB67A22973D400340D8
:100F90002B4307989040209A10401843079001F087
:100FA0001DFA14900125AB070698002804960DD071
:100FB000002ED84A02D0DD48001D1D90249F701ECF
:100FC000864170001090239E1D9913E01868002838
:100FD000D04A06D01068D6494618D64940583146FE
:100FE00003E0D3481118D34810580005800F109023
:100FF000249F239E09680593186800281C950D916D
:1010000006D01068CC49405C0C90F2F7BBFF04E0BE
:10101000C948105C0C90F2F7BDFF03900B9830406C
:101020000B900425182D06D01F9840190521F0F7C4
:10103000AAF96D1DF6E7B74A1C99139DA54203D086
:1010400047A80155641CF9E70B022846984205D2CF
:1010500047A900220A54AF4A401CF7E71098C7403E
:101060001E9881881691417D1791047D407E19213B
:1010700009011191B842129314D21594401EC6B2C0
:10108000012E00D801261E98C17DC77C807D219A43
:10109000126847AB3446002C07D000251D70641E33
:1010A0005B1CF8E70020249096E003235343591873
:1010B0007F4319914F431A97B100219A89180B1F4A
:1010C0001099C840C01CC0B21B90F10325A802466D
:1010D0004A320F92024640320A92421C099218305C
:1010E0001890002224921B9886426ED21D9147A828
:1010F000002420968455A0CB083B23939E68199822
:10110000281AC0198019C117884321460246234670
:10111000F0F708F91A9A801AA14107D3AF42249A2E
:10112000239B01D9B7420BD2209E02E0249A209E35
:10113000239B1D9D81484019411C1B1D761CD1E736
:1011400017980028209E1D9D0BD088A81599009106
:1011500001940290F1B221982246169BFFF74CFEB3
:1011600001E0889530466B4A7549515C002902D0F0
:10117000249A239B18E07349515C0029239B01D0DA
:101180001199401880B21499411A6F48814208465B
:1011900000D36D480029214600D401466B48105AFF
:1011A000081A00D22046249A092AC3D80121099C92
:1011B000A1549100889A189C6250249A0A998E54DE
:1011C00051000F9C6052521CB4E71E988188169102
:1011D000417D1791047D4F4A25A801464031189161
:1011E000014618311B91411C19914A3023901594E6
:1011F000A41E0025564E042D6FD00C202299484382
:1012000010184019875DBC4265DBB800219A11585F
:101210001018021F1268914202D9426891420AD204
:101220007F1CBA00219B9A588A4202D98068824268
:1012300001D2384A4FE017980028F9B20BD088A89D
:101240000022159B0093019202902198169BFFF7B4
:10125000D3FD014601E0C80388902E4A3848105C4F
:10126000002819D13748105C002801D011980918BE
:1012700088B21499421A34488242114600D3324946
:101280000020002A024600D40A4622492F4BC95AA0
:10129000511A00D201461F4A249809281BD8401C25
:1012A000239A401E06D0931C8EB21288B2421A4670
:1012B000F7D10EE0249B1C98199AD0549800889A74
:1012C0001B9E32501898C7545800239A11525B1C29
:1012D0002493104A1E4E6D1C8DE725A82499017099
:1012E0000C202299484380181A494018032116916E
:1012F000CD43294600292FD04218127947AC00234C
:10130000A354FC2A03D847AC121993705370491C9C
:10131000F0E7C04644400100044000003062000095
:101320002C6200002A6200002B62000000380100DD
:101330004C6300005463000066630000FF7F000000
:10134000426200004A620000FFFF000024620000C9
:101350000C4100000441000088A847A9139C2246C4
:10136000219F3B46FEF798FFF148F24E305C011991
:10137000899A15925143CA17120E89180912889A30
:1013800014928C18E1178C43691C614380003A5811
:101390003818031F1B68D218406810184018C1176E
:1013A0008843FFF7F3F91F998870000AC870E24874
:1013B0003056002803D42046FFF7E8F904E0DF495F
:1013C0000898884200D30846199B1F990870000AA4
:1013D0004870002788971098002801D0D84800E06E
:1013E000D8480A90D34A1E9841890991017D1391EA
:1013F000491E1191808900B2089025A801460B3141
:101400002291603017900F972498874200D1DAE03C
:10141000D85D002800D1D4E0B9001B981D91405838
:10142000C10BC9B2159A5143CA17120E8918091275
:10143000149A8D18E9178D431C99401A012400282D
:1014400008D4E949491C884204D3A1034118C90BB7
:10145000152970D31699694308461A95884200DC0D
:10146000084618992097C95D139A8A4200D81199A5
:10147000C9B28900219B5E18321F12685B587768D9
:101480000128014600D82146101AC018C5191E9817
:10149000C088854234DDE81785431E98C07D0F184B
:1014A000F548D349405C06467E434643002428461F
:1014B00021462A462346EFF735FF301A2046884159
:1014C0001ED22E46C848874206D90598006830309B
:1014D000C0B2EFF753FDC44F1B981D994518781CF7
:1014E000411E8C4212D0011949080B464B43BB42A6
:1014F0000A4600D80246BB4200D80C461046EFE729
:101500000020199B209FD855EC4A5AE0002CB94A7C
:1015100005D088AA30462146F3F77EF80246179890
:101520001D99465014461046F0F7B6F8FF28209F44
:101530002BD9FF202CE0AC4A104049000A9A5118E0
:101540004A888B889B18CE889B194243D20B9A1AE3
:1015500009894143C80B101800210F9A0B46EFF779
:10156000E1FE0904000C4018099A002A07D0C117AF
:1015700012B2D317EFF7D6FEC905400A40180899F2
:10158000401816996943401867E72046F0F784F839
:10159000199B1A9C2299C85528680146924A114005
:1015A000924A42321C90C00B914200D9401CC34A5F
:1015B000C0B2800021990858001B0521414348080A
:1015C0000F907F1C20E78C48105A219025A81C30D2
:1015D0004C2100238C4A1C465B1C249EB3421AD229
:1015E00025AE3619B678002E12D025AE341966789D
:1015F000002E0DD025AE765AAF27FF00BE4207D889
:101600000668071F3F68F61B964201DC00266670DD
:10161000891C001DDFE71098002802D0129B54336C
:1016200000E07823A549249A219E7448085C00288C
:1016300000D083001293A048085C1E90002760250C
:101640004A242097BA4226D025A8C01940780028FD
:101650001DD025A8005BB04219D3129981420ED942
:1016600025A840591E9900910E9901910D99109A43
:101670000C9BFFF747FA219E249A002807D02B469F
:10168000209DE8B288A90F546D1C20951D46A41C0E
:101690002D1D7F1CD6E70121209800291AD021900A
:1016A000C2B2002324935C1C94420FD288A8C75C6A
:1016B0002299CD5DC0184678895DA94204D988A9D0
:1016C000CE544770012024902346ECE72198401E19
:1016D0002499E2E72098C2B20B98824200D30B9A79
:1016E00087A8027001211046209200292CD01E905C
:1016F000C0B22490002321935C1C2498844211D210
:1017000088A8C75C7D00239A555BC0184678710095
:10171000515AA94204D288A9CE5447700120219081
:101720002346E9E71E98401E209A2199DDE7C0462E
:1017300049620000444001002C620000FFFF0000ED
:101740009A3301002E3A0100069800281AD0049816
:10175000002817D02A48B64C205CF0F7FDFD21493F
:10176000635C10301F9C21460E9A00F0BFFD0B9861
:1017700000900398019025A988AA87AB2046FEF720
:1017800075FE21E01F98C71D88AD1646002E18D0A3
:101790002C7860002399085AF91E0870000A4870D6
:1017A000A00017990858FEF7F1FF3870000A78700A
:1017B0002298005D209A791E08706D1C7F1D761E90
:1017C000E4E70698002804D00498012807D187A8E8
:1017D00002780C48036810461F99079A98477FB013
:1017E0000CB0F0BD2C620000FF7F0000044100003F
:1017F00043620000C0C62D00386200004B6200004A
:10180000286200001839010065260100FCB5CE4BA6
:10181000E64CE45C0123022C25D8314E357A002DAC
:1018200021D0022C05D1930818241C401207520F16
:10183000A21801240094944032682240F588B688AA
:101840000F1D0021019188420CD03C787B781B024F
:101850001C19B44203D3AC4201D8002A05D17F1D24
:10186000491CF0E7019B1846FCBD009B1C4A5373C2
:101870008142F8D30023F6E74440010010B5184C2C
:10188000217A0120002915D0AF49C84A515C0229AC
:1018900010D800F015F8002806D0217A207B884265
:1018A00005D2401C207302E000202073217A411AE7
:1018B0004842484110BDC0462B6200004440010030
:1018C0000749487B002801D0012003E00548085C57
:1018D000421E9041034A00238B544B737047C0460D
:1018E000203901000D000001F0B589B008A80025DD
:1018F0000570AD48AD4E3018417D8088039004914D
:1019000002290ED1012004064A482F4605574A48AD
:101910002946FEF74DFF4848001929463D46FEF787
:1019200047FF46483118464832182F20C7432B46F8
:101930002C46002F2ED01068002825D00692079143
:101940004048325C90003018C0193F49415C04980F
:10195000002813D00020029008AE0196402000908D
:10196000079805942C461D46039BFFF745FA2B4626
:101970002546059C1B183078DC4E01E05B181846A4
:1019800004196D1C0799069A012000020918121DFE
:101990000C37CEE7E8B2401E03282BD878440079F4
:1019A00040008744011C07142848335208A80470DB
:1019B000E0B225E026484343012109035A18530B9E
:1019C000224AB352A2B242435018400B0EE0981C78
:1019D00083081E483352A0B2801C800806E0581CC1
:1019E00043081A483352A0B2401C400808A90870A6
:1019F000C0B205E015480023335208A8037018460A
:101A0000144973521A4633685A52134A99180228D5
:101A100001D33F2802D308AB02201870B0540870DD
:101A20004C48807A4330C0B2EFF7A8FA09B0F0BD55
:101A3000444001002D3A01002E3A01005C62000092
:101A40005C660000AD6600009C660000A8660000B1
:101A5000AB0A00002462000049620000F0B589B0C2
:101A6000C54EF04CA05DF1F72AF9054637482156DE
:101A7000A05DF1F727F8364FE25B6B08824248D24F
:101A80000190A05D012801D80F2500E03F251540F9
:101A9000012189070968002902931AD03F21C9430F
:101AA000012800D83031CF18012A03D1F1F78AFA82
:101AB0002748225AB8B2401C90420AD12548017AE0
:101AC000002902D0807A012803D1F1F729FA2048B1
:101AD000225A1E482156A05DEFF7D9FF06461E4840
:101AE000235803AF28463946324698471B48205CA6
:101AF000F0F732FC1A49635C103039463246F0F791
:101B0000F1FB134FE05B401CE05340BFE25B029BE4
:101B1000019800280BD0824209D10125A8031E4656
:101B2000F2F740FAE802F2F703FA3346E25B9A4230
:101B300008D301252803F2F7FBF96802F2F732FA1D
:101B40000020E05309B0F0BD2B6200002A620000C3
:101B50002662000000380100546200002862000084
:101B60002C62000070B5F74AF44B9C18104A8A406A
:101B7000A2801D680F4EAA532822002901D01346C7
:101B800000E01923A375002900D0782222810029C2
:101B900001D0012200E002226275FFF737F82075BC
:101BA000A919087470BDC0463062000044400100AD
:101BB000420F000034620000F0B587B01346914236
:101BC00056D0164605460B301F22024001273C46E0
:101BD000944042480694046004973846A84007227F
:101BE0001640BFF34F8FBFF36F8F3D4FC4B2042E2B
:101BF00002D23868A0433860E0433A6A02403A6251
:101C00003A460594FC613748069C0460012913D1CB
:101C1000022003951D46F2F7E7FC01F08DFB3248E8
:101C2000C6490818F2F740FD3A462B46039D304856
:101C30000168049CA1430160701E062818D8C046A4
:101C400078440079400087441603030E0B0E0B0006
:101C5000106A05990843106226480699016007E05A
:101C60000599516301E00599D1621068084310603D
:101C7000184607B0F0BD424FF54CE05B02900220E1
:101C80001D490A460393F2F79DFCF2F795FCE05BD1
:101C90007F26F24301921040E053E019F2F7DAFC9C
:101CA00011482018F2F712FD02993140E05B019AC9
:101CB00010404018E0530E480168049A1143016037
:101CC000284600F097FB039B054A106A05990843D4
:101CD0001062E04806990160CAE7C04680E100E072
:101CE0000400044080E200E0AE63000044400100D4
:101CF0000010004000E100E0A0860100FEB51C4697
:101D0000154601918C49D24F78543A6850541B4B78
:101D1000F8580322029212059043795C022900D3FD
:101D2000022109050143F9507F263540F1F7E0F81B
:101D30001348395A72020A4001998907C90D51188E
:101D4000491939520F4804400F4839580F4A0A4080
:101D50001119089A9205120B89183950074BF85837
:101D60000F21890288430999029A11408A0280183A
:101D700009034018F850FEBD2B62000054630000B8
:101D80005C630000FF030000506300000000F0FFF0
:101D90007CB504468388827841780078E588E678C7
:101DA00000950196FFF7AAFFE178E088FFF7DAFED9
:101DB0007CBD0000F8B572B6194DA54E705D800768
:101DC0002BD519480068C00727D0F2F713F900286F
:101DD00023D130681549405C02281ED114480068A0
:101DE00000281AD1F2F7CEF8044651200702F2F784
:101DF000D1F8BC4211D10521090388420DD1705D93
:101E0000C00703D101204006F2F7CCF8FEF7FAFC38
:101E1000715D04200840EEF7B9FA62B6F8BDC0461D
:101E20002D6200004440010050010040AB660000FC
:101E300030040040F8B50D4600903F48844F395CAF
:101E4000874C206800F0A2FF064660683C49785045
:101E500016202946F0F76CF969684A228E54310A37
:101E60006A684B23D154217A6A684C23D15435498E
:101E700079188A7E6B685F241A55CA7E6B68A02425
:101E80001A55CA7B6B68A3241A558A7B6B68A224F7
:101E90001A55CA786B68A5241A5589786A68A423EC
:101EA000D1548022F049872A06D08B18803B1B78BA
:101EB0006C68A354521CF6E76A68CB7987241355E3
:101EC0000A7A6B6870241A554A7A6B6871241A551D
:101ED0008A7A6B6872241A55C97A6A687323D15456
:101EE00019490A88130A6C68B126A3556B68B02497
:101EF0001A556A688B78B22413556A68CB78B32474
:101F000013556A684B79B42413556A6809796D23AF
:101F1000D154D649795C6A687423D15469680B4AF4
:101F200012787823CA54002800D0F8BD69682022AE
:101F3000009B8B54F8BDC0462B620000444001005A
:101F40004C630000306200000C3801002C3A0100A4
:101F50007CB53E4820250560BFF34F8FBFF36F8FE0
:101F6000E048E14900260E546846EEF763FC00980D
:101F7000047A384805602046103808250F2814D9FF
:101F800020464038092822D2E0003349401833491E
:101F90004018FFF7FDFE69462046FFF74BFF054658
:101FA00020462946F1F758FA7CBDC04678440079AE
:101FB00040008744310807072B271B1E41070707EE
:101FC00007072319ECE76846F0F754F8E7E72046DF
:101FD0008038032804D269462046EFF79BFC7CBD7D
:101FE000FF2CDDD10D25DBE7F04308E01620694624
:101FF000D3E717206946F0F79BF8D0E7012000F0FF
:102000003FF8CCE7684600F06BF8C8E7684600F098
:1020100067F805460028C3D11148007A00F0AEFCED
:102020006846F0F727F80F4802210160F0F7A0F8A2
:102030000546FEF7B1FDB3E718206946F0F778F8DA
:10204000019800F011F83546AAE7C04680E100E0AB
:102050004440010000E100E0D033010000FEFFFF3A
:102060000038010084030140223000217E4A4229C9
:1020700004D053185B7B4354491CF8E70020704799
:10208000F8B5FC490A7B53B2C318134C25682D06DA
:102090006468E407240A6419E4151D1901231E026B
:1020A000AD196D0A16D1DE070C4B1F683D46354051
:1020B00004D11C6034431C602746354612180A734D
:1020C000F905C9150818284318600120F2F722FB0A
:1020D0000020F8BD0E20F8BD18000140301001406E
:1020E000F0B587B0054600682021415C0A46403AB9
:1020F00004462034092A00D397E004945849E04A62
:102100005618F1F7B9F902902F46286802464A326C
:10211000547DB476DA4909680391524BCD182C7678
:10212000A024045DF4766C760446A034E3781B02A8
:10213000F381A1785918F181A9816179090271802F
:102140002379C9187180474B039CE1520146243121
:1021500049782423C35C0902C91889B253784A24F8
:10216000005D1B02181880B2927800F049FC8024B0
:10217000872C0ED020468038BE490D19803D297825
:102180003A68165DC0B23246FFF716FD2E70641C29
:10219000EEE73E6830466D30817EB64CE171C17825
:1021A00003912172027962724379A3728179E1729B
:1021B0003446B0346778B025755D3F027D1905AFB0
:1021C0003D80A578BD70E578FD7024797C716D2423
:1021D000345D3C71C079254CA94E30553568285581
:1021E0001E4C305D224D751900910195039900F048
:1021F000BBF8305D00F074FB1F48305A002806D150
:102200001C48305C002802D00225049C08E005AD83
:10221000284600F087FF287901F010F8049C029D01
:1022200000202070284607B0F0BD182906D01729D5
:1022300008D0162900D160E70925F1E700F0B8FDC4
:102240000025EDE7F1F724FB054600F0FFFA03480F
:10225000F149085C00F044FBE2E7C0462B62000055
:102260003062000032620000303901004862000034
:1022700026630000BE63000024630000B0B5184C64
:10228000A07B401CA07300F055FA0320C502F1F7B3
:1022900079FE2840A84201D1FFF7E0FB012080072A
:1022A0000068002804D0A17B1B2000F0C9FB13E0CC
:1022B0006F480068C1B2102000F0C2FBA17B1A2059
:1022C00000F0BEFB0748D449085C002802D0FFF7A5
:1022D0003FFE40BFFFF76EFDEFF784FEB0BDC04686
:1022E00020390100A863000044400100F8B50092C5
:1022F0000A4607241C401D07ED0F6E00F61C6643BE
:10230000DF06FF0F9B06D90FCB195B00F318009E69
:102310007343C0187B00C018002907D00178002340
:10232000D37091704378D3709170801CD11D002CB4
:1023300018D00378CE1E0022727033704778777001
:1023400033704B1E86781E70002D01D1C01C06E034
:10235000C3784A700B7002794A700B70401D491D9A
:10236000641EE4E7F8BD0000F0B5022801D30F2495
:1023700000E00724E51A00D20025174B022801D3FC
:10238000184600E0FF208C42264600D30E46E84067
:10239000B3409442214600D311461840069A059B4B
:1023A00015460E46002E04D000272F80AD1C761E49
:1023B000F8E79C42254600D31D464B00D218A9429F
:1023C00007D81080921C491CF9E700201080921C4D
:1023D000491CA142F9D9F0BDFFFF0000022901D339
:1023E000034900E0014908567047C0460C3A010015
:1023F0008C390100F8B504461D4805681D48075D85
:10240000E9B2102000F01CFB01263346A3401D401A
:1024100007203840032818D002280BD001281BD1F0
:102420001548002D21D01549F64A515A7F220A40FD
:10243000026011E01F46002D0AD0B004F1F7BAFD8A
:102440002120C004F1F77CFD05E01F46002DF4D0EB
:102450003006F1F7AFFD3B46054803620B341F2001
:102460002040864007480660F8BD00210160F3E780
:102470000000044030390100A00301405C6300000B
:102480004440010080E200E070B512484068804797
:102490000446012675022846F1F752FD2846F1F759
:1024A0005BFDF0F757FF35032846F1F77BFD284623
:1024B000F1F780FD002C0CD07003F1F77BFDF0F7F5
:1024C000C3FCF003F1F76EFDA00702D551480221CD
:1024D000016070BD18390100F8B5F1F753FD0446ED
:1024E0004507F1F757FD002D02D5410700D589E0DA
:1024F000E1077CD100900125EE04600307D5A80414
:10250000F1F71EFD3046F1F755FD00F01FF9E0012F
:1025100005D5344203D02120C004F1F711FD200479
:102520000CD5E803F1F70CFDEB4800687C49405CF2
:10253000002803D1F0F758FF364805602E02E0036B
:102540001DD52804F1F7FCFCE34F38687449405C62
:10255000002803D0F0F748FF2E48056034420ED023
:102560002E48385A00280AD102273846F1F71AFDBA
:102570003846F1F71FFDF2F71FF8F0F7BBFE284FC2
:102580003846D03020401036B04204D13046F1F702
:10259000D7FC00F0E3FA2740402F04D14020F1F7A8
:1025A000CFFC00F013FBA00611D560040FD5AE03DD
:1025B000009830420BD030462030F1F7C1FC304655
:1025C000F1F7CAFC9148E949085CF0F769FD60053C
:1025D00005D5A802F1F7B4FC08200E4908602006D2
:1025E0000FD58020F1F7ACFCF0F79CFEF8BDF1F7B9
:1025F00099FB00F02DFA0420F1F7D4FC0120F1F74B
:102600009FFCF8BD0320F1F7EFFF00F095FEEFF718
:10261000D7FDF8BD40110140444001002463000093
:1026200040000C00F8B5F1F7ADFC0546F1F7B2FC3F
:102630000446052005420AD0E80707D0F1F79AFBC7
:102640000420F1F7AFFC0120F1F77AFCF8BD680631
:102650002CD53348DA4E305C002811D0A80424D49D
:10266000EEF758FB002820D02E48315CF148305C52
:102670002D4A1768F0F71DFB874216D2F0F736FB9C
:102680004020F1F75DFC2948305880470120C60200
:102690003046F1F78FFC3046F1F784FCE748807A4A
:1026A0004130C0B2EEF76AFC00E040BFA80533D568
:1026B000012675022C422FD0E04C207A00280ED043
:1026C000A07A4530C0B2EEF759FCA07A012809D1B2
:1026D000174800212154A1724020FFF743FAFFF769
:1026E000D3FE19E012482654A672207A022801D09F
:1026F000DA2001E0D12040000221FFF733FA28461A
:10270000F1F71EFC2846F1F727FC34032046F1F7C9
:1027100049FC2046F1F74EFCF0F796FBF8BDC046A9
:10272000AC6600002C6200003004004058620000DB
:102730000A00000180B5012080070068002802D04F
:10274000FFF770FF80BDFFF7C7FE80BDF8B5F1F75A
:10275000BBFE2B48B84C2018F1F7A6FF00F078F923
:102760002948006800281ED0284D6657002E0ED438
:10277000B248007A002834D0AE48275C3046713029
:10278000C0B2EEF7FBFB042F0ED808200DE072B6A6
:10279000F1F7F8FB400705D11D48F1F70BFC0220CB
:1027A000F1F700FC62B6F8BD0C20022FA34A00D856
:1027B0000220022F01D8002100E00121C840517AF7
:1027C000002907D001290CD10021002E08D0864213
:1027D00006D006E0002E01D0864202D186190121E2
:1027E0005172F1F779FE701E605521684855300628
:1027F00001D0402001E011200001F1F7DBFBF8BD22
:10280000AE63000044400100140002402962000051
:102810000200000410B50C490A68027000224F2A19
:1028200003D008C98354521CF9E7012142560F23F3
:102830001340284C23700023C056002800D41309ED
:1028400023480370084610BD44000140B0B594B061
:1028500000201E4C802807D000212154221801237B
:102860001B06D154401CF5E7194800210170194896
:1028700001704048D04D285C002809D00120000696
:102880002118164A1318204600F0B6FA14B0B0BD4D
:102890006846FFF7BFFF0028F0D06846017807229E
:1028A0000A40AC4BEA548906490FA94AA9540121B0
:1028B00009066218214600F0CFFA0D20A6494F28DC
:1028C000DCD06A46125C0A54401CF8E78C390100DF
:1028D0002D3A01002C3A0100444001000C3A01005D
:1028E00070B594B00446BF20C043B34D20490246A2
:1028F000002A05D0AB180646BF365E50121DF7E71A
:102900001C48285C002801D014B070BD6846FFF751
:1029100081FF0028F8D0012C0CD8684600784106C9
:102920000ED440B200281AD413482918684600F083
:10293000DBFAE9E7022CE7D100206946085600E0FF
:1029400040B2002805D40C482918684600F0B4FAB3
:10295000DAE709482918684600F05AFBD4E7064828
:102960002918684600F06DFBCEE7C04644400100E0
:102970001C6300004B6300005C62000010B50E4950
:102980002E4C60542072002802D04020002108E024
:102990000A48ED4908580003800D0A4A895809057C
:1029A000890FFFF7DFF80021A17261720120000694
:1029B00020188172417210BD0800000150630000B0
:1029C000444001005463000010B563490C7B0020B3
:1029D000087361B201290DDB00280BD10120FFF73C
:1029E0004FFB641EF5E7002807D10020C043FFF726
:1029F00047FB641C61B20029F5D4C0B210BDC046CB
:102A0000F8B50C4605461046FFF7B8FFCD48CE4F47
:102A1000395C2846F0F7D8FC01210906CD4D6850F5
:102A200028606E18C748395C2046F0F7CDFC70600E
:102A30006860F8BD2B6200004440010000380100CE
:102A4000024A13681954526811547047E410000088
:102A500010B50020E54A01460346072B0DD0D45C93
:102A6000052C05D0042C06D101249C40214302E012
:102A700001249C4020435B1CEFE7144A90601160E6
:102A800010BDC04610B50021D8480A460B46072B9A
:102A90000DD0C45C052C05D0042C06D101249C402B
:102AA000214302E001249C4022435B1CEFE7074BDB
:102AB00099601A60C079012803D0022804D1C82087
:102AC00000E06420F1F726FE10BDC046300004404F
:102AD000FEB51E489C4D285C000736D5994EA85D72
:102AE000012828D8A8482C18C04FB87A7A7A397AA1
:102AF000FB7A5B005B1CDBB2009301944906090E74
:102B00005206120E4000401CC3B20220FFF72CFCFC
:102B10009C482A5C9448295C9448285C234600F031
:102B2000ABFBA85DBB7A7A7A397AFD7A009501947D
:102B3000FFF71AFCFEBD93482A5C8B48295C8B4842
:102B4000285C914BEB1800F097FBFEBD2D62000056
:102B500048630000476300003039010070B57C48CD
:102B6000794DFF212954154A1368154C2C5D2E68A8
:102B700031548020184020431060EEF775FE7E48E7
:102B80002C182046F1F79CFA0E48285C2146F1F7F4
:102B9000C1FA71482818F1F7B3FCF1F7EDFC0A48C7
:102BA000012101606948285C002801D0FFF76AFF15
:102BB00000F00CF870BDC04644400100B403014071
:102BC000C96300004963000004000240F0B5B5B0DD
:102BD0005C485D4F3E5C042E01D8082300E00C23C6
:102BE000022E00D802235948385C0390584AB85C3A
:102BF000441C584D297A00294DD004936E30C0B240
:102C0000EEF7BCF9022E01D8002000E00120049B61
:102C10001946C140E0B2002803D06A7A814202D04E
:102C200010E04C4A527A002A0CD1012068724548C3
:102C3000385C00214022009201911722F923FFF70E
:102C40005DF820E0814201D0834223D1012A21D1C5
:102C5000002068723B48385C641A297A022908D13E
:102C60000221D1225300009301911F33032133220B
:102C700006E00221DA220092019103215D22F9236C
:102C8000FFF73CF82D1D2868334978507818F1F784
:102C900037FC049B2E4ABC5438688454E5B2AB42DE
:102CA00047D920466130C0B2EEF768F92548385C54
:102CB000210601D0032814D32849795C284ABA1880
:102CC000009205AE2A463346F1F764F825483A5893
:102CD0002548395C2548385C3346F1F761FAFFF73F
:102CE000F7FE012004406000039BC34098070FD00B
:102CF0001F48395A1F4A0A405908C907890D5118F7
:102D000039523818F1F7A6FC1B483818F1F7DEFCE9
:102D1000A0003968081819490968194A81501948EA
:102D2000385C19497918F1F759F92046F1F732FC66
:102D300005E00A20EEF722F98020F1F73BF935B0E3
:102D4000F0BDC0462B620000444001004663000015
:102D500029620000003801004C6300006663000037
:102D60005C620000206300004863000047630000CD
:102D70005C630000FFFD0000AE6300002010014016
:102D8000A06600004A63000026630000042901D801
:102D9000082200E00C22022900D802225043800AB7
:102DA0000249884200D308467047C046FFFF000032
:102DB00070B50146223100220C48422A04D08B5CB7
:102DC00084186373521CF8E701210E06084CA519FC
:102DD0000D3021462A4600F074F9064A9319204620
:102DE000294600F009F8002070BDC04630390100C6
:102DF0008C3901000C3A0100F0B585B004910390C4
:102E0000029301920020022824D00090820001A9A0
:102E1000895803AB9A580023042B18D000240D4680
:102E2000102C10D0165717190120385630181026BC
:102E3000BE5780191126BE578019801C8008287043
:102E40006D1CA41CECE7083120325B1CE4E7009801
:102E5000401CD8E705B0F0BD80B503785B0607D409
:102E60000020802807D0002313540B54401CF8E79F
:102E70000D3000F026F980BDF8B500920D460646EB
:102E80000020C74303204402A74214DA30462946F3
:102E900000F044F83F18A742F6DA1F20384001211D
:102EA0008140F817C00E381840118000009B1A5856
:102EB0008A431A50E8E7F8BDBCB50C4605460078D1
:102EC000400601D50D2200E0162201A8022123466A
:102ED00000F036F800202856002804D401A829461E
:102EE0002246FFF7C9FFBCBDBCB50C4605460078BD
:102EF000400603D401A816214F2202E001A80221B6
:102F00000D22234600F01CF800202856002804D487
:102F100001A829462246FFF7AFFFBCBD70B5037874
:102F200045780024394ADEB2AE4206D88E5D5B1C7D
:102F30000370A419FF2EF6D0621C90B270BDC0467B
:102F40000170511E4170002B07D00020C02804D012
:102F50000021C9431950001DF8E77047F0B587B04C
:102F60000092069100210191CB4306784578C17803
:102F70000591877803225102049702918B4242DA2D
:102F80000393019AEBB20699CC5C05997318037010
:102F9000F6B2F440DEB2082E15D3083B03706D1C68
:102FA0004570EEB201798E4203D900241E46174ABD
:102FB0000AE019060DD00699895DDEB2059FBE1B99
:102FC000049FB1400C191E463C401219BC42D9D096
:102FD00001E00026F8E7511C89B2039B5B180299B7
:102FE0008B42CBDA1F21194001228A40D917C90E22
:102FF000591849118900009C039363589343635007
:103000000299039BBAE707B0F0BDC046580B000019
:10301000BFB50C46054600780091400601D50D234A
:1030200000E0162302A80C22294600F026F8002012
:103030002856002804D402A829462246FFF78EFF0E
:10304000BFBDBFB50C4605460078400604D40094C9
:1030500002A8B0224F2303E0009402A80C220D2303
:10306000294600F00AF800202856002804D402A8B7
:1030700029462246FFF772FFBFBDB0B55B1E037144
:10308000D3084370072422400270C95C551C0570A8
:10309000D140C90700D00824C4700021CD43A54009
:1030A000EC438470072A03D1002202705A1C42703C
:1030B0000498C02904D00022D2434250091DF8E7E9
:1030C000B0BDFEB500910023C55601AC2580467801
:1030D00003277743AD007F19FF1CBF08E780770007
:1030E0007F19BF1CBF08A7807519AD1CAD0865808E
:1030F000803A811CFF2B14D87F2B144600D8009CEB
:10310000E4189D084E5D0025042D08D0B7077F0FF9
:1031100001A8C05D60556D1CF0B28608F4E71B1D68
:10312000E8E7FEBDF0B585B00190394E0027B781C4
:1031300038493948415C3172384A825AB280384B3A
:10314000C35AF380012500952D0602957619317238
:10315000B280B781F38033494418334833490818A3
:1031600004902120C000091838463D46202F17D072
:103170003E460746284600250D70227803912179A6
:10318000049B1D70054638463746B14008430399F5
:10319000B24015435B1C0493641C491C0837E5E7E7
:1031A0002349224F009A7A54029E1949885183205C
:1031B00040003A540D601F483818B91D8023002B79
:1031C00006D000220A800280801C891C5B1EF6E764
:1031D000019A002A09D09078B870D378FB701488CF
:1031E0003C8051797971157909E00821797112488B
:1031F00078807D2004013C8006230A200025BC53F2
:103200003D71BA195171D3709070157105B0F0BD50
:1032100020390100BE63000044400100BA63000091
:10322000BC630000C0630000080100010C3801000D
:1032300006010001060000010A060000012801D075
:10324000094900E0074901221206084B995001285C
:1032500001D0084800E00648196058609918486095
:103260007047C046310C01000D18010018390100EB
:103270004D0C01007D180100F0B587B0039300925A
:103280000C224243284810180690284C1419480074
:1032900016210290081A01900B21C84305900020C6
:1032A000102831D0012104908140059E0B36002565
:1032B0000398202D0BD0425B114202D0059A0B32AD
:1032C00002E00322AA40D2431640AD1CF1E731468A
:1032D0000198C140164A1140029886401640059D4B
:1032E000002D0AD006984219D7686019C368374084
:1032F000D7600B40C3602D1DF2E706980C30069096
:103300000C340498401CCBE700200A49009B042899
:1033100008D01A46C240D20701D100220A60091D16
:10332000401CF4E707B0F0BD000006400000074075
:10333000FFFF3F00B000024008480169002900D0AB
:103340007047016A0029FBD1016B0029F8D1016C9B
:103350000029F5D1002101607047C04600010040FE
:10336000FF00010000FF00013E29A16BCB3CA11230
:103370001D0A3A06E1036D028401F500990066001A
:10338000410029001C0012000B0007000200010090
:1033900000000000000000000000942BEC94DA34E0
:1033A0001B061A0137000B0002000000000000009D
:1033B000000000000000000000000000000000000D
:1033C00000000000000000000000000000AB02014F
:1033D00000035D42F900DA0000033342C101A2019B
:1033E00000001700F900DA0002035D42F900DA007C
:1033F00002001700F900400003035D42F900DA0003
:1034000003001700F900400005035D42F900DA00EF
:0834100005001700F90040005F
:04000005000100C135
:00000001FF
